{
  "contractName": "Tokenize",
  "abi": [
    {
      "inputs": [
        {
          "internalType": "string",
          "name": "_name",
          "type": "string"
        },
        {
          "internalType": "string",
          "name": "_symbol",
          "type": "string"
        },
        {
          "internalType": "uint256",
          "name": "_decimals",
          "type": "uint256"
        },
        {
          "internalType": "address",
          "name": "_owner",
          "type": "address"
        },
        {
          "internalType": "uint256",
          "name": "_supply",
          "type": "uint256"
        },
        {
          "internalType": "string",
          "name": "_tokenURI",
          "type": "string"
        },
        {
          "internalType": "bool",
          "name": "_tokenizerVerificationList",
          "type": "bool"
        },
        {
          "internalType": "address",
          "name": "_tokenizerListAddress",
          "type": "address"
        },
        {
          "internalType": "bool",
          "name": "_ownerVerificationList",
          "type": "bool"
        },
        {
          "internalType": "address",
          "name": "_contractOwner",
          "type": "address"
        }
      ],
      "payable": false,
      "stateMutability": "nonpayable",
      "type": "constructor"
    },
    {
      "anonymous": false,
      "inputs": [
        {
          "indexed": true,
          "internalType": "address",
          "name": "owner",
          "type": "address"
        },
        {
          "indexed": true,
          "internalType": "address",
          "name": "spender",
          "type": "address"
        },
        {
          "indexed": false,
          "internalType": "uint256",
          "name": "value",
          "type": "uint256"
        }
      ],
      "name": "Approval",
      "type": "event"
    },
    {
      "anonymous": false,
      "inputs": [
        {
          "indexed": false,
          "internalType": "uint256",
          "name": "amount",
          "type": "uint256"
        }
      ],
      "name": "Issue",
      "type": "event"
    },
    {
      "anonymous": false,
      "inputs": [
        {
          "indexed": true,
          "internalType": "address",
          "name": "previousOwner",
          "type": "address"
        },
        {
          "indexed": true,
          "internalType": "address",
          "name": "newOwner",
          "type": "address"
        }
      ],
      "name": "OwnershipTransferred",
      "type": "event"
    },
    {
      "anonymous": false,
      "inputs": [
        {
          "indexed": false,
          "internalType": "uint256",
          "name": "feeBasisPoints",
          "type": "uint256"
        }
      ],
      "name": "Params",
      "type": "event"
    },
    {
      "anonymous": false,
      "inputs": [],
      "name": "Pause",
      "type": "event"
    },
    {
      "anonymous": false,
      "inputs": [
        {
          "indexed": true,
          "internalType": "address",
          "name": "from",
          "type": "address"
        },
        {
          "indexed": true,
          "internalType": "address",
          "name": "to",
          "type": "address"
        },
        {
          "indexed": false,
          "internalType": "uint256",
          "name": "value",
          "type": "uint256"
        }
      ],
      "name": "Transfer",
      "type": "event"
    },
    {
      "anonymous": false,
      "inputs": [],
      "name": "Unpause",
      "type": "event"
    },
    {
      "anonymous": false,
      "inputs": [
        {
          "indexed": false,
          "internalType": "address",
          "name": "_user",
          "type": "address"
        }
      ],
      "name": "ownerAddedBlackList",
      "type": "event"
    },
    {
      "anonymous": false,
      "inputs": [
        {
          "indexed": false,
          "internalType": "address",
          "name": "_user",
          "type": "address"
        }
      ],
      "name": "ownerAddedWhiteList",
      "type": "event"
    },
    {
      "anonymous": false,
      "inputs": [
        {
          "indexed": false,
          "internalType": "address",
          "name": "_user",
          "type": "address"
        }
      ],
      "name": "ownerRemovedBlackList",
      "type": "event"
    },
    {
      "anonymous": false,
      "inputs": [
        {
          "indexed": false,
          "internalType": "address",
          "name": "_user",
          "type": "address"
        }
      ],
      "name": "ownerRemovedWhiteList",
      "type": "event"
    },
    {
      "constant": true,
      "inputs": [],
      "name": "MAX_UINT",
      "outputs": [
        {
          "internalType": "uint256",
          "name": "",
          "type": "uint256"
        }
      ],
      "payable": false,
      "stateMutability": "view",
      "type": "function"
    },
    {
      "constant": true,
      "inputs": [],
      "name": "_totalSupply",
      "outputs": [
        {
          "internalType": "uint256",
          "name": "",
          "type": "uint256"
        }
      ],
      "payable": false,
      "stateMutability": "view",
      "type": "function"
    },
    {
      "constant": true,
      "inputs": [
        {
          "internalType": "address",
          "name": "",
          "type": "address"
        },
        {
          "internalType": "address",
          "name": "",
          "type": "address"
        }
      ],
      "name": "allowed",
      "outputs": [
        {
          "internalType": "uint256",
          "name": "",
          "type": "uint256"
        }
      ],
      "payable": false,
      "stateMutability": "view",
      "type": "function"
    },
    {
      "constant": true,
      "inputs": [
        {
          "internalType": "address",
          "name": "",
          "type": "address"
        }
      ],
      "name": "balances",
      "outputs": [
        {
          "internalType": "uint256",
          "name": "",
          "type": "uint256"
        }
      ],
      "payable": false,
      "stateMutability": "view",
      "type": "function"
    },
    {
      "constant": true,
      "inputs": [],
      "name": "basisPointsRate",
      "outputs": [
        {
          "internalType": "uint256",
          "name": "",
          "type": "uint256"
        }
      ],
      "payable": false,
      "stateMutability": "view",
      "type": "function"
    },
    {
      "constant": true,
      "inputs": [],
      "name": "decimals",
      "outputs": [
        {
          "internalType": "uint256",
          "name": "",
          "type": "uint256"
        }
      ],
      "payable": false,
      "stateMutability": "view",
      "type": "function"
    },
    {
      "constant": true,
      "inputs": [],
      "name": "getOwnerofList",
      "outputs": [
        {
          "internalType": "address",
          "name": "",
          "type": "address"
        }
      ],
      "payable": false,
      "stateMutability": "view",
      "type": "function"
    },
    {
      "constant": true,
      "inputs": [
        {
          "internalType": "address",
          "name": "_maker",
          "type": "address"
        }
      ],
      "name": "getownerBlackListStatus",
      "outputs": [
        {
          "internalType": "bool",
          "name": "",
          "type": "bool"
        }
      ],
      "payable": false,
      "stateMutability": "view",
      "type": "function"
    },
    {
      "constant": true,
      "inputs": [
        {
          "internalType": "address",
          "name": "_maker",
          "type": "address"
        }
      ],
      "name": "getownerWhiteListStatus",
      "outputs": [
        {
          "internalType": "bool",
          "name": "",
          "type": "bool"
        }
      ],
      "payable": false,
      "stateMutability": "view",
      "type": "function"
    },
    {
      "constant": true,
      "inputs": [],
      "name": "maximumFee",
      "outputs": [
        {
          "internalType": "uint256",
          "name": "",
          "type": "uint256"
        }
      ],
      "payable": false,
      "stateMutability": "view",
      "type": "function"
    },
    {
      "constant": true,
      "inputs": [],
      "name": "name",
      "outputs": [
        {
          "internalType": "string",
          "name": "",
          "type": "string"
        }
      ],
      "payable": false,
      "stateMutability": "view",
      "type": "function"
    },
    {
      "constant": true,
      "inputs": [],
      "name": "owner",
      "outputs": [
        {
          "internalType": "address",
          "name": "",
          "type": "address"
        }
      ],
      "payable": false,
      "stateMutability": "view",
      "type": "function"
    },
    {
      "constant": true,
      "inputs": [
        {
          "internalType": "address",
          "name": "",
          "type": "address"
        }
      ],
      "name": "ownerBlackList",
      "outputs": [
        {
          "internalType": "bool",
          "name": "",
          "type": "bool"
        }
      ],
      "payable": false,
      "stateMutability": "view",
      "type": "function"
    },
    {
      "constant": true,
      "inputs": [
        {
          "internalType": "address",
          "name": "",
          "type": "address"
        }
      ],
      "name": "ownerWhiteList",
      "outputs": [
        {
          "internalType": "bool",
          "name": "",
          "type": "bool"
        }
      ],
      "payable": false,
      "stateMutability": "view",
      "type": "function"
    },
    {
      "constant": false,
      "inputs": [
        {
          "internalType": "address",
          "name": "_evilUser",
          "type": "address"
        }
      ],
      "name": "owneraddBlackList",
      "outputs": [],
      "payable": false,
      "stateMutability": "nonpayable",
      "type": "function"
    },
    {
      "constant": false,
      "inputs": [
        {
          "internalType": "address",
          "name": "_verifiedUser",
          "type": "address"
        }
      ],
      "name": "owneraddWhiteList",
      "outputs": [],
      "payable": false,
      "stateMutability": "nonpayable",
      "type": "function"
    },
    {
      "constant": false,
      "inputs": [
        {
          "internalType": "address",
          "name": "_clearedUser",
          "type": "address"
        }
      ],
      "name": "ownerremoveBlackList",
      "outputs": [],
      "payable": false,
      "stateMutability": "nonpayable",
      "type": "function"
    },
    {
      "constant": false,
      "inputs": [
        {
          "internalType": "address",
          "name": "_exUser",
          "type": "address"
        }
      ],
      "name": "ownerremoveWhiteList",
      "outputs": [],
      "payable": false,
      "stateMutability": "nonpayable",
      "type": "function"
    },
    {
      "constant": false,
      "inputs": [],
      "name": "pause",
      "outputs": [],
      "payable": false,
      "stateMutability": "nonpayable",
      "type": "function"
    },
    {
      "constant": true,
      "inputs": [],
      "name": "paused",
      "outputs": [
        {
          "internalType": "bool",
          "name": "",
          "type": "bool"
        }
      ],
      "payable": false,
      "stateMutability": "view",
      "type": "function"
    },
    {
      "constant": true,
      "inputs": [],
      "name": "symbol",
      "outputs": [
        {
          "internalType": "string",
          "name": "",
          "type": "string"
        }
      ],
      "payable": false,
      "stateMutability": "view",
      "type": "function"
    },
    {
      "constant": true,
      "inputs": [],
      "name": "tokenURI",
      "outputs": [
        {
          "internalType": "string",
          "name": "",
          "type": "string"
        }
      ],
      "payable": false,
      "stateMutability": "view",
      "type": "function"
    },
    {
      "constant": false,
      "inputs": [
        {
          "internalType": "address",
          "name": "newOwner",
          "type": "address"
        }
      ],
      "name": "transferOwnership",
      "outputs": [],
      "payable": false,
      "stateMutability": "nonpayable",
      "type": "function"
    },
    {
      "constant": false,
      "inputs": [],
      "name": "unpause",
      "outputs": [],
      "payable": false,
      "stateMutability": "nonpayable",
      "type": "function"
    },
    {
      "constant": false,
      "inputs": [
        {
          "internalType": "address",
          "name": "_to",
          "type": "address"
        },
        {
          "internalType": "uint256",
          "name": "_value",
          "type": "uint256"
        }
      ],
      "name": "transfer",
      "outputs": [],
      "payable": false,
      "stateMutability": "nonpayable",
      "type": "function"
    },
    {
      "constant": false,
      "inputs": [
        {
          "internalType": "address",
          "name": "_from",
          "type": "address"
        },
        {
          "internalType": "address",
          "name": "_to",
          "type": "address"
        },
        {
          "internalType": "uint256",
          "name": "_value",
          "type": "uint256"
        }
      ],
      "name": "transferFrom",
      "outputs": [],
      "payable": false,
      "stateMutability": "nonpayable",
      "type": "function"
    },
    {
      "constant": true,
      "inputs": [],
      "name": "totalSupply",
      "outputs": [
        {
          "internalType": "uint256",
          "name": "",
          "type": "uint256"
        }
      ],
      "payable": false,
      "stateMutability": "view",
      "type": "function"
    },
    {
      "constant": true,
      "inputs": [
        {
          "internalType": "address",
          "name": "who",
          "type": "address"
        }
      ],
      "name": "balanceOf",
      "outputs": [
        {
          "internalType": "uint256",
          "name": "",
          "type": "uint256"
        }
      ],
      "payable": false,
      "stateMutability": "view",
      "type": "function"
    },
    {
      "constant": false,
      "inputs": [
        {
          "internalType": "address",
          "name": "_spender",
          "type": "address"
        },
        {
          "internalType": "uint256",
          "name": "_value",
          "type": "uint256"
        }
      ],
      "name": "approve",
      "outputs": [],
      "payable": false,
      "stateMutability": "nonpayable",
      "type": "function"
    },
    {
      "constant": true,
      "inputs": [
        {
          "internalType": "address",
          "name": "_owner",
          "type": "address"
        },
        {
          "internalType": "address",
          "name": "_spender",
          "type": "address"
        }
      ],
      "name": "allowance",
      "outputs": [
        {
          "internalType": "uint256",
          "name": "remaining",
          "type": "uint256"
        }
      ],
      "payable": false,
      "stateMutability": "view",
      "type": "function"
    },
    {
      "constant": false,
      "inputs": [
        {
          "internalType": "uint256",
          "name": "amount",
          "type": "uint256"
        }
      ],
      "name": "issue",
      "outputs": [],
      "payable": false,
      "stateMutability": "nonpayable",
      "type": "function"
    },
    {
      "constant": false,
      "inputs": [
        {
          "internalType": "uint256",
          "name": "newBasisPoints",
          "type": "uint256"
        }
      ],
      "name": "setParams",
      "outputs": [],
      "payable": false,
      "stateMutability": "nonpayable",
      "type": "function"
    }
  ],
  "bytecode": "0x6080604052601460038190556004556006805460a060020a60ff02191690553480156200002b57600080fd5b50604051620024633803806200246383398181016040526101408110156200005257600080fd5b81019080805160405193929190846401000000008211156200007357600080fd5b9083019060208201858111156200008957600080fd5b8251640100000000811182820188101715620000a457600080fd5b82525081516020918201929091019080838360005b83811015620000d3578181015183820152602001620000b9565b50505050905090810190601f168015620001015780820380516001836020036101000a031916815260200191505b50604052602001805160405193929190846401000000008211156200012557600080fd5b9083019060208201858111156200013b57600080fd5b82516401000000008111828201881017156200015657600080fd5b82525081516020918201929091019080838360005b83811015620001855781810151838201526020016200016b565b50505050905090810190601f168015620001b35780820380516001836020036101000a031916815260200191505b50604081815260208301519083015160608401516080909401805192969195919284640100000000821115620001e857600080fd5b908301906020820185811115620001fe57600080fd5b82516401000000008111828201881017156200021957600080fd5b82525081516020918201929091019080838360005b83811015620002485781810151838201526020016200022e565b50505050905090810190601f168015620002765780820380516001836020036101000a031916815260200191505b506040818152602083015190830151606084015160809094015160068054600160a060020a031916600160a060020a038c81169190911791829055939750919550928992839283929116906000907f8be0079c531659141344cd1fd0a4f28419497f9722a3daafe3b4186f6b6457e0908290a35050620003058162000412640100000000026401000000009004565b5060028054600160a060020a031916600160a060020a038316179055600086905589516200033b9060099060208d019062000494565b5088516200035190600a9060208c019062000494565b50600b88905560008054600160a060020a03891682526001602090815260409092205585516200038891600d919088019062000494565b50600e8054600c8054600160a060020a031916600160a060020a038781169190911790915560ff199091168615151761ff0019166101008515150217909155600080546040805191825251928a16927fddf252ad1be2c89b69c2b068fc378daa952ba7f163c4a11628f55a4df523b3ef916020908290030190a35050505050505050505062000539565b600160a060020a03811660009081526007602052604090205460ff16156200043957600080fd5b600160a060020a038116600081815260086020908152604091829020805460ff19166001179055815192835290517f6a581be2ac3ac6ac56dcb684dac5de71e454f0cf9fe8d8d3742b17b1bc24a15d9281900390910190a150565b828054600181600116156101000203166002900490600052602060002090601f016020900481019282601f10620004d757805160ff191683800117855562000507565b8280016001018555821562000507579182015b8281111562000507578251825591602001919060010190620004ea565b506200051592915062000519565b5090565b6200053691905b8082111562000515576000815560010162000520565b90565b611f1a80620005496000396000f3fe608060405234801561001057600080fd5b506004361061020d576000357c0100000000000000000000000000000000000000000000000000000000900480636a74464f1161012c578063afb5495e116100bf578063e5b5019a1161008e578063e5b5019a14610587578063e68c22d61461058f578063e6a5ba00146105b5578063f2fde38b146105db5761020d565b8063afb5495e1461050e578063cc872b6614610534578063dd62ed3e14610551578063dd644f721461057f5761020d565b80638456cb59116100fb5780638456cb59146104ca5780638da5cb5b146104d257806395d89b41146104da578063a9059cbb146104e25761020d565b80636a74464f1461043457806370a082311461045a5780638288ea6514610480578063835a2f2b146104a45761020d565b8063313ce567116101a45780633f4ba83a116101735780633f4ba83a146103d957806359ded210146103e15780635c658165146103fe5780635c975abb1461042c5761020d565b8063313ce567146103b957806335390714146103c15780633c130d90146103c95780633eaaf86b146103d15761020d565b8063190b8fe8116101e0578063190b8fe81461031157806323b872dd1461033757806327e235e31461036d57806328fc4c20146103935761020d565b806306fdde0314610212578063094e67a91461028f578063095ea7b3146102c957806318160ddd146102f7575b600080fd5b61021a610601565b6040805160208082528351818301528351919283929083019185019080838360005b8381101561025457818101518382015260200161023c565b50505050905090810190601f1680156102815780820380516001836020036101000a031916815260200191505b509250505060405180910390f35b6102b5600480360360208110156102a557600080fd5b5035600160a060020a031661068f565b604080519115158252519081900360200190f35b6102f5600480360360408110156102df57600080fd5b50600160a060020a0381351690602001356106ad565b005b6102ff6106cc565b60408051918252519081900360200190f35b6102f56004803603602081101561032757600080fd5b5035600160a060020a03166106d2565b6102f56004803603606081101561034d57600080fd5b50600160a060020a038135811691602081013590911690604001356107e2565b6102ff6004803603602081101561038357600080fd5b5035600160a060020a0316610d4a565b6102f5600480360360208110156103a957600080fd5b5035600160a060020a0316610d5c565b6102ff610dcb565b6102ff610dd1565b61021a610dd7565b6102ff610e32565b6102f5610e38565b6102f5600480360360208110156103f757600080fd5b5035610eae565b6102ff6004803603604081101561041457600080fd5b50600160a060020a0381358116916020013516610f00565b6102b5610f1d565b6102f56004803603602081101561044a57600080fd5b5035600160a060020a0316610f2d565b6102ff6004803603602081101561047057600080fd5b5035600160a060020a0316610f50565b610488610f61565b60408051600160a060020a039092168252519081900360200190f35b6102b5600480360360208110156104ba57600080fd5b5035600160a060020a0316610f70565b6102f5610f8e565b61048861100b565b61021a61101a565b6102f5600480360360408110156104f857600080fd5b50600160a060020a038135169060200135611075565b6102f56004803603602081101561052457600080fd5b5035600160a060020a03166115e0565b6102f56004803603602081101561054a57600080fd5b503561164f565b6102ff6004803603604081101561056757600080fd5b50600160a060020a03813581169160200135166116fc565b6102ff61170f565b6102ff611715565b6102b5600480360360208110156105a557600080fd5b5035600160a060020a031661171b565b6102b5600480360360208110156105cb57600080fd5b5035600160a060020a0316611730565b6102f5600480360360208110156105f157600080fd5b5035600160a060020a0316611745565b6009805460408051602060026001851615610100026000190190941693909304601f810184900484028201840190925281815292918301828280156106875780601f1061065c57610100808354040283529160200191610687565b820191906000526020600020905b81548152906001019060200180831161066a57829003601f168201915b505050505081565b600160a060020a031660009081526008602052604090205460ff1690565b604060443610156106bd57600080fd5b6106c783836117d2565b505050565b60005490565b600654600160a060020a031633146106e957600080fd5b600160a060020a0381166106fc57600080fd5b600654600160a060020a038281169116141561071757600080fd5b600160a060020a0381166000908152600760209081526040808320805460ff19166001179055600890915290205460ff16156107a357600160a060020a038116600081815260086020908152604091829020805460ff19169055815192835290517f78f8b8df688179489e06ca20fe04606adc2b5b4156dc52ca8a372c72caa1adc39281900390910190a15b60408051600160a060020a038316815290517fa6d9ee8161d32d58e5072cd548684026841b387f9ad208a2b53fa6c42d4f65ae9181900360200190a150565b60065460a060020a900460ff16156107f957600080fd5b600e5460ff161515600114801561081d5750600e5460ff6101009091041615156001145b15610acc57600c546040805160e560020a630723eb030281523360048201529051600160a060020a039092169163e47d6060916024808201926020929091908290030181600087803b15801561087257600080fd5b505af1158015610886573d6000803e3d6000fd5b505050506040513d602081101561089c57600080fd5b50511580156109265750600c546040805160e560020a630723eb03028152600160a060020a0385811660048301529151919092169163e47d60609160248083019260209291908290030181600087803b1580156108f857600080fd5b505af115801561090c573d6000803e3d6000fd5b505050506040513d602081101561092257600080fd5b5051155b61092f57600080fd5b600c546040805160e160020a6337c8b87b0281523360048201529051600160a060020a0390921691636f9170f6916024808201926020929091908290030181600087803b15801561097f57600080fd5b505af1158015610993573d6000803e3d6000fd5b505050506040513d60208110156109a957600080fd5b50518015610a315750600c546040805160e160020a6337c8b87b028152600160a060020a03858116600483015291519190921691636f9170f69160248083019260209291908290030181600087803b158015610a0457600080fd5b505af1158015610a18573d6000803e3d6000fd5b505050506040513d6020811015610a2e57600080fd5b50515b610a3a57600080fd5b3360009081526007602052604090205460ff16158015610a735750600160a060020a03821660009081526007602052604090205460ff16155b610a7c57600080fd5b3360009081526008602052604090205460ff168015610ab35750600160a060020a03821660009081526008602052604090205460ff165b610abc57600080fd5b610ac7838383611913565b6106c7565b600e5460ff16151560011415610cf357600c546040805160e560020a630723eb030281523360048201529051600160a060020a039092169163e47d6060916024808201926020929091908290030181600087803b158015610b2c57600080fd5b505af1158015610b40573d6000803e3d6000fd5b505050506040513d6020811015610b5657600080fd5b5051158015610be05750600c546040805160e560020a630723eb03028152600160a060020a0385811660048301529151919092169163e47d60609160248083019260209291908290030181600087803b158015610bb257600080fd5b505af1158015610bc6573d6000803e3d6000fd5b505050506040513d6020811015610bdc57600080fd5b5051155b610be957600080fd5b600c546040805160e160020a6337c8b87b0281523360048201529051600160a060020a0390921691636f9170f6916024808201926020929091908290030181600087803b158015610c3957600080fd5b505af1158015610c4d573d6000803e3d6000fd5b505050506040513d6020811015610c6357600080fd5b50518015610ab35750600c546040805160e160020a6337c8b87b028152600160a060020a03858116600483015291519190921691636f9170f69160248083019260209291908290030181600087803b158015610cbe57600080fd5b505af1158015610cd2573d6000803e3d6000fd5b505050506040513d6020811015610ce857600080fd5b5051610abc57600080fd5b600e5460ff61010090910416151560011415610abc573360009081526007602052604090205460ff16158015610a735750600160a060020a03821660009081526007602052604090205460ff1615610a7c57600080fd5b60016020526000908152604090205481565b600654600160a060020a03163314610d7357600080fd5b600160a060020a038116600081815260076020908152604091829020805460ff19169055815192835290517fceae7c8fbd3ed59a7be5b3a6be56168702d020af37f3c01f4e81f34b48d722e39281900390910190a150565b600b5481565b60045481565b600d805460408051602060026001851615610100026000190190941693909304601f810184900484028201840190925281815292918301828280156106875780601f1061065c57610100808354040283529160200191610687565b60005481565b600654600160a060020a03163314610e4f57600080fd5b60065460a060020a900460ff16610e6557600080fd5b6006805474ff0000000000000000000000000000000000000000191690556040517f7805862f689e2f13df9f062ff482ad3ad112aca9e0847911ed832e158c525b3390600090a1565b600254600160a060020a03163314610ec557600080fd5b60038190556040805182815290517f2696a6358e16692f320e4570c01170fd423f0f4acbc8d0120c42a33e5d2e154a9181900360200190a150565b600560209081526000928352604080842090915290825290205481565b60065460a060020a900460ff1681565b600654600160a060020a03163314610f4457600080fd5b610f4d81611b90565b50565b6000610f5b82611c11565b92915050565b600654600160a060020a031690565b600160a060020a031660009081526007602052604090205460ff1690565b600654600160a060020a03163314610fa557600080fd5b60065460a060020a900460ff1615610fbc57600080fd5b6006805474ff0000000000000000000000000000000000000000191660a060020a1790556040517f6985a02210a168e66602d3235cb6db0e70f92b3ba4d376a33c0f3d9434bff62590600090a1565b600654600160a060020a031681565b600a805460408051602060026001851615610100026000190190941693909304601f810184900484028201840190925281815292918301828280156106875780601f1061065c57610100808354040283529160200191610687565b60065460a060020a900460ff161561108c57600080fd5b600e5460ff16151560011480156110b05750600e5460ff6101009091041615156001145b1561135e57600c546040805160e560020a630723eb030281523360048201529051600160a060020a039092169163e47d6060916024808201926020929091908290030181600087803b15801561110557600080fd5b505af1158015611119573d6000803e3d6000fd5b505050506040513d602081101561112f57600080fd5b50511580156111b95750600c546040805160e560020a630723eb03028152600160a060020a0385811660048301529151919092169163e47d60609160248083019260209291908290030181600087803b15801561118b57600080fd5b505af115801561119f573d6000803e3d6000fd5b505050506040513d60208110156111b557600080fd5b5051155b6111c257600080fd5b600c546040805160e160020a6337c8b87b0281523360048201529051600160a060020a0390921691636f9170f6916024808201926020929091908290030181600087803b15801561121257600080fd5b505af1158015611226573d6000803e3d6000fd5b505050506040513d602081101561123c57600080fd5b505180156112c45750600c546040805160e160020a6337c8b87b028152600160a060020a03858116600483015291519190921691636f9170f69160248083019260209291908290030181600087803b15801561129757600080fd5b505af11580156112ab573d6000803e3d6000fd5b505050506040513d60208110156112c157600080fd5b50515b6112cd57600080fd5b3360009081526007602052604090205460ff161580156113065750600160a060020a03821660009081526007602052604090205460ff16155b61130f57600080fd5b3360009081526008602052604090205460ff1680156113465750600160a060020a03821660009081526008602052604090205460ff165b61134f57600080fd5b6113598282611c2c565b6115dc565b600e5460ff1615156001141561158557600c546040805160e560020a630723eb030281523360048201529051600160a060020a039092169163e47d6060916024808201926020929091908290030181600087803b1580156113be57600080fd5b505af11580156113d2573d6000803e3d6000fd5b505050506040513d60208110156113e857600080fd5b50511580156114725750600c546040805160e560020a630723eb03028152600160a060020a0385811660048301529151919092169163e47d60609160248083019260209291908290030181600087803b15801561144457600080fd5b505af1158015611458573d6000803e3d6000fd5b505050506040513d602081101561146e57600080fd5b5051155b61147b57600080fd5b600c546040805160e160020a6337c8b87b0281523360048201529051600160a060020a0390921691636f9170f6916024808201926020929091908290030181600087803b1580156114cb57600080fd5b505af11580156114df573d6000803e3d6000fd5b505050506040513d60208110156114f557600080fd5b505180156113465750600c546040805160e160020a6337c8b87b028152600160a060020a03858116600483015291519190921691636f9170f69160248083019260209291908290030181600087803b15801561155057600080fd5b505af1158015611564573d6000803e3d6000fd5b505050506040513d602081101561157a57600080fd5b505161134f57600080fd5b600e5460ff6101009091041615156001141561134f573360009081526007602052604090205460ff161580156113065750600160a060020a03821660009081526007602052604090205460ff161561130f57600080fd5b5050565b600654600160a060020a031633146115f757600080fd5b600160a060020a038116600081815260086020908152604091829020805460ff19169055815192835290517f78f8b8df688179489e06ca20fe04606adc2b5b4156dc52ca8a372c72caa1adc39281900390910190a150565b600654600160a060020a0316331461166657600080fd5b6000548181011161167657600080fd5b600654600160a060020a03166000908152600160205260409020548181011161169e57600080fd5b600654600160a060020a0316600090815260016020908152604080832080548501905582548401909255815183815291517fcb8241adb0c3fdb35b70c24ce35c5eb0c17af7431c99f827d44a445ca624176a9281900390910190a150565b60006117088383611dd6565b9392505050565b60035481565b60001981565b60076020526000908152604090205460ff1681565b60086020526000908152604090205460ff1681565b600654600160a060020a0316331461175c57600080fd5b600160a060020a03811615610f4d57600654604051600160a060020a038084169216907f8be0079c531659141344cd1fd0a4f28419497f9722a3daafe3b4186f6b6457e090600090a360068054600160a060020a03831673ffffffffffffffffffffffffffffffffffffffff1990911617905550565b604060443610156117e257600080fd5b81158015906118135750336000908152600560209081526040808320600160a060020a038716845290915290205415155b15611868576040805160e560020a62461bcd02815260206004820152601c60248201527f45524332303a7261636520636f6e646974696f6e206372656174656400000000604482015290519081900360640190fd5b600160a060020a0383166118b05760405160e560020a62461bcd028152600401808060200182810382526022815260200180611e7f6022913960400191505060405180910390fd5b336000818152600560209081526040808320600160a060020a03881680855290835292819020869055805186815290519293927f8c5be1e5ebec7d5bd14f71427d1e84f3dd0314c0f7b2291e5b200ac8c7c3b925929181900390910190a3505050565b6060606436101561192357600080fd5b600160a060020a03841661196b5760405160e560020a62461bcd028152600401808060200182810382526025815260200180611ec16025913960400191505060405180910390fd5b600160a060020a0383166119b35760405160e560020a62461bcd028152600401808060200182810382526023815260200180611e5c6023913960400191505060405180910390fd5b600160a060020a0384166000908152600560209081526040808320338452909152812054600354909190611a02906103e8906119f690879063ffffffff611e0116565b9063ffffffff611e2516565b9050600019821015611a4357611a1e828563ffffffff611e3a16565b600160a060020a03871660009081526005602090815260408083203384529091529020555b6000611a55858363ffffffff611e3a16565b600160a060020a038816600090815260016020526040902054909150611a81908663ffffffff611e3a16565b600160a060020a038089166000908152600160205260408082209390935590881681522054611ab6908263ffffffff611e4c16565b600160a060020a0387166000908152600160205260409020558115611b4e57600254600160a060020a0316600090815260016020526040902054611b00908363ffffffff611e4c16565b60028054600160a060020a039081166000908152600160209081526040918290209490945591548251868152925190821693918b1692600080516020611ea183398151915292908290030190a35b85600160a060020a031687600160a060020a0316600080516020611ea1833981519152836040518082815260200191505060405180910390a350505050505050565b600160a060020a03811660009081526007602052604090205460ff1615611bb657600080fd5b600160a060020a038116600081815260086020908152604091829020805460ff19166001179055815192835290517f6a581be2ac3ac6ac56dcb684dac5de71e454f0cf9fe8d8d3742b17b1bc24a15d9281900390910190a150565b600160a060020a031660009081526001602052604090205490565b60406044361015611c3c57600080fd5b600160a060020a038316611c845760405160e560020a62461bcd028152600401808060200182810382526023815260200180611e5c6023913960400191505060405180910390fd5b6000611ca16103e86119f660035486611e0190919063ffffffff16565b90506000611cb5848363ffffffff611e3a16565b33600090815260016020526040902054909150611cd8908563ffffffff611e3a16565b3360009081526001602052604080822092909255600160a060020a03871681522054611d0a908263ffffffff611e4c16565b600160a060020a0386166000908152600160205260409020558115611da157600254600160a060020a0316600090815260016020526040902054611d54908363ffffffff611e4c16565b60028054600160a060020a03908116600090815260016020908152604091829020949094559154825186815292519116923392600080516020611ea1833981519152929081900390910190a35b604080518281529051600160a060020a038716913391600080516020611ea18339815191529181900360200190a35050505050565b600160a060020a03918216600090815260056020908152604080832093909416825291909152205490565b600082611e1057506000610f5b565b82820282848281611e1d57fe5b041461170857fe5b600080828481611e3157fe5b04949350505050565b600082821115611e4657fe5b50900390565b60008282018381101561170857fefe45524332303a207472616e7366657220746f20746865207a65726f206164647265737345524332303a20617070726f766520746f20746865207a65726f2061646472657373ddf252ad1be2c89b69c2b068fc378daa952ba7f163c4a11628f55a4df523b3ef45524332303a207472616e736665722066726f6d20746865207a65726f2061646472657373a265627a7a723158201665108e00789fedea5e4e49f4ee84a82ffaac906dd012eba0d7364a94e1289264736f6c63430005100032",
  "source": "pragma solidity >=0.5.0 <0.6.0;\n\nimport \"./Interfaces/VerificationListInterface.sol\";\n\nlibrary SafeMath {\n    function mul(uint256 a, uint256 b) internal pure returns (uint256) {\n        if (a == 0) {\n            return 0;\n        }\n        uint256 c = a * b;\n        assert(c / a == b);\n        return c;\n    }\n\n    function div(uint256 a, uint256 b) internal pure returns (uint256) {\n        // assert(b > 0); // Solidity automatically throws when dividing by 0\n        uint256 c = a / b;\n        // assert(a == b * c + a % b); // There is no case in which this doesn't hold\n        return c;\n    }\n\n    function sub(uint256 a, uint256 b) internal pure returns (uint256) {\n        assert(b <= a);\n        return a - b;\n    }\n\n    function add(uint256 a, uint256 b) internal pure returns (uint256) {\n        uint256 c = a + b;\n        assert(c >= a);\n        return c;\n    }\n}\n\n/**\n * @title ERC20Basic\n * @dev Simpler version of ERC20 interface\n * @dev see https://github.com/ethereum/EIPs/issues/20\n */\ncontract ERC20Basic {\n    uint256 public _totalSupply;\n\n    function totalSupply() public view returns (uint256);\n\n    function balanceOf(address who) public view returns (uint256);\n\n    function transfer(address to, uint256 value) public;\n\n    event Transfer(address indexed from, address indexed to, uint256 value);\n}\n\n/**\n * @title ERC20 interface\n * @dev see https://github.com/ethereum/EIPs/issues/20\n */\ncontract ERC20 is ERC20Basic {\n    function allowance(address owner, address spender)\n        public\n        view\n        returns (uint256);\n\n    function transferFrom(\n        address from,\n        address to,\n        uint256 value\n    ) public;\n\n    function approve(address spender, uint256 value) public;\n\n    event Approval(\n        address indexed owner,\n        address indexed spender,\n        uint256 value\n    );\n}\n\n/**\n * @title Basic token\n * @dev Basic version of StandardToken, with no allowances.\n */\ncontract BasicToken is ERC20Basic {\n    using SafeMath for uint256;\n\n    mapping(address => uint256) public balances;\n    address contractOwner; //the address to which the fees will go to\n\n    // additional variables for use if transaction fees ever became necessary\n    uint256 public basisPointsRate = 20;\n    uint256 public maximumFee = 20;\n\n    /**\n     * @dev Fix for the ERC20 short address attack.\n     */\n    modifier onlyPayloadSize(uint256 size) {\n        require(!(msg.data.length < size + 4));\n        _;\n    }\n\n    /**\n     * @dev transfer token for a specified address\n     * @param _to The address to transfer to.\n     * @param _value The amount to be transferred.\n     */\n    function transfer(address _to, uint256 _value)\n        public\n        onlyPayloadSize(2 * 32)\n    {\n        require(_to != address(0), \"ERC20: transfer to the zero address\");\n\n        uint256 fee = (_value.mul(basisPointsRate)).div(1000);\n        /*if (fee > maximumFee) {\n            fee = maximumFee;\n        }*/\n        uint256 sendAmount = _value.sub(fee);\n        balances[msg.sender] = balances[msg.sender].sub(_value);\n        balances[_to] = balances[_to].add(sendAmount);\n        if (fee > 0) {\n            balances[contractOwner] = balances[contractOwner].add(fee);\n            emit Transfer(msg.sender, contractOwner, fee);\n        }\n        emit Transfer(msg.sender, _to, sendAmount);\n    }\n\n    /**\n     * @dev Gets the balance of the specified address.\n     * @param _owner The address to query the the balance of.\n     * @return An uint representing the amount owned by the passed address.\n     */\n    function balanceOf(address _owner) public view returns (uint256 balance) {\n        return balances[_owner];\n    }\n}\n\n/**\n * @title Standard ERC20 token\n *\n * @dev Implementation of the basic standard token.\n * @dev https://github.com/ethereum/EIPs/issues/20\n * @dev Based oncode by FirstBlood: https://github.com/Firstbloodio/token/blob/master/smart_contract/FirstBloodToken.sol\n */\ncontract StandardToken is BasicToken, ERC20 {\n    mapping(address => mapping(address => uint256)) public allowed;\n\n    uint256 public constant MAX_UINT = 2**256 - 1;\n\n    /**\n     * @dev Transfer tokens from one address to another\n     * @param _from address The address which you want to send tokens from\n     * @param _to address The address which you want to transfer to\n     * @param _value uint the amount of tokens to be transferred\n     */\n    function transferFrom(\n        address _from,\n        address _to,\n        uint256 _value\n    ) public onlyPayloadSize(3 * 32) {\n        require(_from != address(0), \"ERC20: transfer from the zero address\");\n        require(_to != address(0), \"ERC20: transfer to the zero address\");\n\n        uint256 _allowance = allowed[_from][msg.sender];\n\n        // Check is not needed because sub(_allowance, _value) will already throw if this condition is not met\n        // if (_value > _allowance) throw;\n\n        uint256 fee = (_value.mul(basisPointsRate)).div(1000);\n        /*if (fee > maximumFee) {\n            fee = maximumFee;\n        }*/\n        if (_allowance < MAX_UINT) {\n            allowed[_from][msg.sender] = _allowance.sub(_value);\n        }\n        uint256 sendAmount = _value.sub(fee);\n        balances[_from] = balances[_from].sub(_value);\n        balances[_to] = balances[_to].add(sendAmount);\n        if (fee > 0) {\n            balances[contractOwner] = balances[contractOwner].add(fee);\n            emit Transfer(_from, contractOwner, fee);\n        }\n        emit Transfer(_from, _to, sendAmount);\n    }\n\n    /**\n     * @dev Approve the passed address to spend the specified amount of tokens on behalf of msg.sender.\n     * @param _spender The address which will spend the funds.\n     * @param _value The amount of tokens to be spent.\n     */\n    function approve(address _spender, uint256 _value)\n        public\n        onlyPayloadSize(2 * 32)\n    {\n        // To change the approve amount you first have to reduce the addresses`\n        //  allowance to zero by calling `approve(_spender, 0)` if it is not\n        //  already 0 to mitigate the race condition described here:\n        //  https://github.com/ethereum/EIPs/issues/20#issuecomment-263524729\n        require(\n            !((_value != 0) && (allowed[msg.sender][_spender] != 0)),\n            \"ERC20:race condition created\"\n        );\n\n        require(_spender != address(0), \"ERC20: approve to the zero address\");\n\n        allowed[msg.sender][_spender] = _value;\n        emit Approval(msg.sender, _spender, _value);\n    }\n\n    /**\n     * @dev Function to check the amount of tokens than an owner allowed to a spender.\n     * @param _owner address The address which owns the funds.\n     * @param _spender address The address which will spend the funds.\n     * @return A uint specifying the amount of tokens still available for the spender.\n     */\n    function allowance(address _owner, address _spender)\n        public\n        view\n        returns (uint256 remaining)\n    {\n        return allowed[_owner][_spender];\n    }\n}\n\ncontract OwnerList {\n    address public owner;\n\n    event OwnershipTransferred(\n        address indexed previousOwner,\n        address indexed newOwner\n    );\n\n    /**\n     * Constructor sets original 'owner' of the contract to the sender address\n     */\n    constructor(address _owner) public {\n        owner = _owner;\n        emit OwnershipTransferred(address(0), owner);\n    }\n\n    // Throws if called by any account other than the owner\n    modifier onlyOwner() {\n        require(msg.sender == owner);\n        _;\n    }\n\n    // Allows current owner to transfer contract control to a new owner\n    function transferOwnership(address newOwner) public onlyOwner {\n        if (newOwner != address(0)) {\n            emit OwnershipTransferred(owner, newOwner);\n            owner = newOwner;\n        }\n    }\n}\n\n/**\n * @title Pausable\n * @dev Base contract which allows children to implement an emergency stop mechanism.\n */\ncontract Pausable is OwnerList {\n    event Pause();\n    event Unpause();\n\n    bool public paused = false;\n\n    constructor(address _owner) public OwnerList(_owner) {}\n\n    /**\n     * @dev Modifier to make a function callable only when the contract is not paused.\n     */\n    modifier whenNotPaused() {\n        require(!paused);\n        _;\n    }\n\n    /**\n     * @dev Modifier to make a function callable only when the contract is paused.\n     */\n    modifier whenPaused() {\n        require(paused);\n        _;\n    }\n\n    /**\n     * @dev called by the owner to pause, triggers stopped state\n     */\n    function pause() public onlyOwner whenNotPaused {\n        paused = true;\n        emit Pause();\n    }\n\n    /**\n     * @dev called by the owner to unpause, returns to normal state\n     */\n    function unpause() public onlyOwner whenPaused {\n        paused = false;\n        emit Unpause();\n    }\n}\n\ncontract OwnerVerList is Pausable {\n    /////// Getters to allow the same blacklist/whitelist to be used also by other contracts  ///////\n\n    constructor(address _owner) public Pausable(_owner) {\n        _owneraddWhiteList(_owner);\n    }\n\n    function getownerBlackListStatus(address _maker)\n        external\n        view\n        returns (bool)\n    {\n        return ownerBlackList[_maker];\n    }\n\n    function getownerWhiteListStatus(address _maker)\n        external\n        view\n        returns (bool)\n    {\n        return ownerWhiteList[_maker];\n    }\n\n    function getOwnerofList() external view returns (address) {\n        return owner;\n    }\n\n    mapping(address => bool) public ownerBlackList;\n    mapping(address => bool) public ownerWhiteList;\n\n    function owneraddBlackList(address _evilUser) public onlyOwner {\n        require(_evilUser != address(0));\n        require(_evilUser != owner);\n        ownerBlackList[_evilUser] = true;\n        if (ownerWhiteList[_evilUser]) {\n            ownerWhiteList[_evilUser] = false;\n            emit ownerRemovedWhiteList(_evilUser);\n        }\n        emit ownerAddedBlackList(_evilUser);\n    }\n\n    function ownerremoveBlackList(address _clearedUser) public onlyOwner {\n        ownerBlackList[_clearedUser] = false;\n        emit ownerRemovedBlackList(_clearedUser);\n    }\n\n    function _owneraddWhiteList(address _verifiedUser) internal {\n        require(!ownerBlackList[_verifiedUser]);\n        ownerWhiteList[_verifiedUser] = true;\n        emit ownerAddedWhiteList(_verifiedUser);\n    }\n\n    function owneraddWhiteList(address _verifiedUser) public onlyOwner {\n        _owneraddWhiteList(_verifiedUser);\n    }\n\n    function ownerremoveWhiteList(address _exUser) public onlyOwner {\n        ownerWhiteList[_exUser] = false;\n        emit ownerRemovedWhiteList(_exUser);\n    }\n\n    event ownerAddedBlackList(address _user);\n\n    event ownerRemovedBlackList(address _user);\n\n    event ownerAddedWhiteList(address _user);\n\n    event ownerRemovedWhiteList(address _user);\n}\n\ncontract Tokenize is StandardToken, OwnerVerList {\n    string public name;\n    string public symbol;\n    uint256 public decimals;\n    IVerificationList tokenizerList;\n\n    //  The contract can be initialized with a number of tokens\n    //  All the tokens are deposited to the owner address\n    //\n    // @param _balance Initial supply of the contract\n    // @param _name Token Name\n    // @param _symbol Token symbol\n    // @param _decimals Token decimals\n    string public tokenURI;\n    bool tokenizerVerificationList;\n    bool ownerVerificationList;\n\n    // Constructor\n    constructor(\n        string memory _name,\n        string memory _symbol,\n        uint256 _decimals,\n        address _owner,\n        uint256 _supply,\n        string memory _tokenURI,\n        bool _tokenizerVerificationList,\n        address _tokenizerListAddress,\n        bool _ownerVerificationList,\n        address _contractOwner\n    ) public OwnerVerList(_owner) {\n        //_totalSupply = _supply.mul(10**_decimals);\n        contractOwner = _contractOwner; //The address to which the fees will go to\n        _totalSupply = _supply;\n        name = _name;\n        symbol = _symbol;\n        decimals = _decimals;\n        balances[_owner] = _totalSupply;\n        tokenURI = _tokenURI;\n        tokenizerVerificationList = _tokenizerVerificationList;\n        tokenizerList = IVerificationList(_tokenizerListAddress);\n        ownerVerificationList = _ownerVerificationList;\n\n        emit Transfer(address(0), _owner, _totalSupply);\n    }\n\n    function transfer(address _to, uint256 _value) public whenNotPaused {\n        if (\n            tokenizerVerificationList == true && ownerVerificationList == true\n        ) {\n            // TOKENIZER Check\n            require(\n                !tokenizerList.isBlackListed(msg.sender) &&\n                    !tokenizerList.isBlackListed(_to)\n            );\n            require(\n                tokenizerList.isWhiteListed(msg.sender) &&\n                    tokenizerList.isWhiteListed(_to)\n            );\n\n            // OWNER Check\n            require(!ownerBlackList[msg.sender] && !ownerBlackList[_to]);\n            require(ownerWhiteList[msg.sender] && ownerWhiteList[_to]);\n\n            return super.transfer(_to, _value);\n        } else if (tokenizerVerificationList == true) {\n            // TOKENIZER Check\n            require(\n                !tokenizerList.isBlackListed(msg.sender) &&\n                    !tokenizerList.isBlackListed(_to)\n            );\n            require(\n                tokenizerList.isWhiteListed(msg.sender) &&\n                    tokenizerList.isWhiteListed(_to)\n            );\n\n            return super.transfer(_to, _value);\n        } else if (ownerVerificationList == true) {\n            // OWNER Check\n            require(!ownerBlackList[msg.sender] && !ownerBlackList[_to]);\n            require(ownerWhiteList[msg.sender] && ownerWhiteList[_to]);\n\n            return super.transfer(_to, _value);\n        } else {\n            return super.transfer(_to, _value);\n        }\n    }\n\n    function transferFrom(\n        address _from,\n        address _to,\n        uint256 _value\n    ) public whenNotPaused {\n        if (\n            tokenizerVerificationList == true && ownerVerificationList == true\n        ) {\n            // TOKENIZER CHECK\n            require(\n                !tokenizerList.isBlackListed(msg.sender) &&\n                    !tokenizerList.isBlackListed(_to)\n            );\n            require(\n                tokenizerList.isWhiteListed(msg.sender) &&\n                    tokenizerList.isWhiteListed(_to)\n            );\n\n            // OWNER Check\n            require(!ownerBlackList[msg.sender] && !ownerBlackList[_to]);\n            require(ownerWhiteList[msg.sender] && ownerWhiteList[_to]);\n\n            return super.transferFrom(_from, _to, _value);\n        } else if (tokenizerVerificationList == true) {\n            // TOKENIZER CHECK\n            require(\n                !tokenizerList.isBlackListed(msg.sender) &&\n                    !tokenizerList.isBlackListed(_to)\n            );\n            require(\n                tokenizerList.isWhiteListed(msg.sender) &&\n                    tokenizerList.isWhiteListed(_to)\n            );\n\n            return super.transferFrom(_from, _to, _value);\n        } else if (ownerVerificationList == true) {\n            // OWNER Check\n            require(!ownerBlackList[msg.sender] && !ownerBlackList[_to]);\n            require(ownerWhiteList[msg.sender] && ownerWhiteList[_to]);\n\n            return super.transferFrom(_from, _to, _value);\n        } else {\n            return super.transferFrom(_from, _to, _value);\n        }\n    }\n\n    function totalSupply() public view returns (uint256) {\n        return _totalSupply;\n    }\n\n    function balanceOf(address who) public view returns (uint256) {\n        return super.balanceOf(who);\n    }\n\n    function approve(address _spender, uint256 _value)\n        public\n        onlyPayloadSize(2 * 32)\n    {\n        return super.approve(_spender, _value);\n    }\n\n    function allowance(address _owner, address _spender)\n        public\n        view\n        returns (uint256 remaining)\n    {\n        return super.allowance(_owner, _spender);\n    }\n\n    // Issue a new amount of tokens\n    // these tokens are deposited into the owner address\n    //\n    // @param _amount Number of tokens to be issued\n    function issue(uint256 amount) public onlyOwner {\n        require(_totalSupply + amount > _totalSupply);\n        require(balances[owner] + amount > balances[owner]);\n\n        balances[owner] += amount;\n        _totalSupply += amount;\n        emit Issue(amount);\n    }\n\n    function setParams(uint256 newBasisPoints) public {\n        require(msg.sender == contractOwner);\n\n        basisPointsRate = newBasisPoints;\n\n        emit Params(basisPointsRate);\n    }\n\n    // Called when new token are issued\n    event Issue(uint256 amount);\n\n    // Called if contract ever adds fees\n    event Params(uint256 feeBasisPoints);\n}\n",
  "sourcePath": "/Users/sy/Tokenizer/Projects/stp_mainnet/self-tokenization-platform/contracts/Tokenize.sol",
  "compiler": {
    "name": "solc",
    "version": "0.5.16+commit.9c3226ce.Emscripten.clang"
  },
  "schemaVersion": "3.0.20",
  "updatedAt": "2020-06-24T15:49:54.985Z",
  "devdoc": {
    "methods": {
      "pause()": {
        "details": "called by the owner to pause, triggers stopped state"
      },
      "unpause()": {
        "details": "called by the owner to unpause, returns to normal state"
      }
    }
  },
  "userdoc": {
    "methods": {}
  }
}