{
  "contractName": "UpgradeabilityProxy",
  "abi": [
    {
      "inputs": [
        {
          "internalType": "uint256",
          "name": "_version",
          "type": "uint256"
        }
      ],
      "payable": false,
      "stateMutability": "nonpayable",
      "type": "constructor"
    },
    {
      "payable": true,
      "stateMutability": "payable",
      "type": "fallback"
    },
    {
      "constant": true,
      "inputs": [],
      "name": "implementation",
      "outputs": [
        {
          "internalType": "address",
          "name": "",
          "type": "address"
        }
      ],
      "payable": false,
      "stateMutability": "view",
      "type": "function"
    },
    {
      "constant": true,
      "inputs": [],
      "name": "registry",
      "outputs": [
        {
          "internalType": "contract IRegistry",
          "name": "",
          "type": "address"
        }
      ],
      "payable": false,
      "stateMutability": "view",
      "type": "function"
    },
    {
      "constant": false,
      "inputs": [
        {
          "internalType": "uint256",
          "name": "_version",
          "type": "uint256"
        }
      ],
      "name": "upgradeTo",
      "outputs": [],
      "payable": false,
      "stateMutability": "nonpayable",
      "type": "function"
    }
  ],
  "bytecode": "0x608060405234801561001057600080fd5b5060405161048e38038061048e8339818101604052602081101561003357600080fd5b505160008054600160a060020a031916331790556100598164010000000061005f810204565b5061018b565b600054600160a060020a031633146100d857604080517f08c379a000000000000000000000000000000000000000000000000000000000815260206004820152601c60248201527f4552525f4f4e4c595f524547495354524552595f43414e5f43414c4c00000000604482015290519081900360640190fd5b600054604080517fb88da759000000000000000000000000000000000000000000000000000000008152600481018490529051600160a060020a039092169163b88da75991602480820192602092909190829003018186803b15801561013d57600080fd5b505afa158015610151573d6000803e3d6000fd5b505050506040513d602081101561016757600080fd5b505160018054600160a060020a031916600160a060020a0390921691909117905550565b6102f48061019a6000396000f3fe608060405260043610610050577c010000000000000000000000000000000000000000000000000000000060003504635c60da1b81146100f65780637b10399914610127578063fd016b341461013c575b600061005a610168565b9050600160a060020a0381166100d157604080517f08c379a000000000000000000000000000000000000000000000000000000000815260206004820152601660248201527f4552525f494d504c454d454e5445494f4e5f5a45524f00000000000000000000604482015290519081900360640190fd5b60405136600082376000803683855af43d806000843e8180156100f2578184f35b8184fd5b34801561010257600080fd5b5061010b610168565b60408051600160a060020a039092168252519081900360200190f35b34801561013357600080fd5b5061010b610177565b34801561014857600080fd5b506101666004803603602081101561015f57600080fd5b5035610186565b005b600154600160a060020a031690565b600054600160a060020a031681565b600054600160a060020a031633146101ff57604080517f08c379a000000000000000000000000000000000000000000000000000000000815260206004820152601c60248201527f4552525f4f4e4c595f524547495354524552595f43414e5f43414c4c00000000604482015290519081900360640190fd5b600054604080517fb88da759000000000000000000000000000000000000000000000000000000008152600481018490529051600160a060020a039092169163b88da75991602480820192602092909190829003018186803b15801561026457600080fd5b505afa158015610278573d6000803e3d6000fd5b505050506040513d602081101561028e57600080fd5b50516001805473ffffffffffffffffffffffffffffffffffffffff1916600160a060020a039092169190911790555056fea265627a7a72315820c12f55e64d3deb9eb111049c5db4c54344a63171c6a9959e9bcc402c80fccc8b64736f6c63430005100032",
  "source": "pragma solidity ^0.5.9;\n\nimport './IRegistry.sol';\nimport './UpgradeabilityStorage.sol';\n\n/**\n * @title UpgradeabilityProxy\n * @dev This contract represents a proxy where the implementation address to which it will delegate can be upgraded\n */\ncontract UpgradeabilityProxy is  UpgradeabilityStorage {\n    /**\n     * @dev Constructor function\n     */\n    constructor(uint256 _version) public {\n        registry = IRegistry(msg.sender);\n        upgradeTo(_version);\n    }\n\n    /**\n     * @dev Upgrades the implementation to the requested version\n     * @param _version representing the version name of the new implementation to be set\n     */\n    function upgradeTo(uint256 _version) public {\n        require(msg.sender == address(registry),\"ERR_ONLY_REGISTRERY_CAN_CALL\");\n        _implementation = registry.getVersion(_version);\n    }\n}\n",
  "sourcePath": "/Users/sy/Tokenizer/Projects/stp_mainnet/self-tokenization-platform/contracts/Proxy/UpgradeabilityProxy.sol",
  "compiler": {
    "name": "solc",
    "version": "0.5.16+commit.9c3226ce.Emscripten.clang"
  },
  "schemaVersion": "3.0.20",
  "updatedAt": "2020-06-24T15:49:54.732Z",
  "devdoc": {
    "details": "This contract represents a proxy where the implementation address to which it will delegate can be upgraded",
    "methods": {
      "constructor": {
        "details": "Constructor function"
      },
      "implementation()": {
        "details": "Tells the address of the current implementation",
        "return": "address of the current implementation"
      },
      "upgradeTo(uint256)": {
        "details": "Upgrades the implementation to the requested version",
        "params": {
          "_version": "representing the version name of the new implementation to be set"
        }
      }
    },
    "title": "UpgradeabilityProxy"
  },
  "userdoc": {
    "methods": {}
  }
}