{
  "contractName": "Upgradeable",
  "abi": [
    {
      "payable": true,
      "stateMutability": "payable",
      "type": "fallback"
    },
    {
      "constant": true,
      "inputs": [],
      "name": "implementation",
      "outputs": [
        {
          "internalType": "address",
          "name": "",
          "type": "address"
        }
      ],
      "payable": false,
      "stateMutability": "view",
      "type": "function"
    },
    {
      "constant": true,
      "inputs": [],
      "name": "registry",
      "outputs": [
        {
          "internalType": "contract IRegistry",
          "name": "",
          "type": "address"
        }
      ],
      "payable": false,
      "stateMutability": "view",
      "type": "function"
    },
    {
      "constant": true,
      "inputs": [],
      "name": "initialize",
      "outputs": [],
      "payable": false,
      "stateMutability": "view",
      "type": "function"
    }
  ],
  "bytecode": "0x608060405234801561001057600080fd5b50610262806100206000396000f3fe608060405260043610610050577c010000000000000000000000000000000000000000000000000000000060003504635c60da1b81146101035780637b103999146101415780638129fc1c14610156575b600061005a61016d565b905073ffffffffffffffffffffffffffffffffffffffff81166100de57604080517f08c379a000000000000000000000000000000000000000000000000000000000815260206004820152601660248201527f4552525f494d504c454d454e5445494f4e5f5a45524f00000000000000000000604482015290519081900360640190fd5b60405136600082376000803683855af43d806000843e8180156100ff578184f35b8184fd5b34801561010f57600080fd5b5061011861016d565b6040805173ffffffffffffffffffffffffffffffffffffffff9092168252519081900360200190f35b34801561014d57600080fd5b50610118610189565b34801561016257600080fd5b5061016b6101a5565b005b60015473ffffffffffffffffffffffffffffffffffffffff1690565b60005473ffffffffffffffffffffffffffffffffffffffff1681565b60005473ffffffffffffffffffffffffffffffffffffffff16331461022b57604080517f08c379a000000000000000000000000000000000000000000000000000000000815260206004820152601c60248201527f4552525f4f4e4c595f524547495354524552595f43414e5f43414c4c00000000604482015290519081900360640190fd5b56fea265627a7a72315820f151b78137fdadcceda34eea180d71f80d8e1e25937aa553d8164468f039f7ac64736f6c63430005100032",
  "source": "pragma solidity ^0.5.9;\n\nimport \"./UpgradeabilityStorage.sol\";\n\n/**\n * @title Upgradeable\n * @dev This contract holds all the minimum required functionality for a behavior to be upgradeable.\n * This means, required state variables for owned upgradeability purpose and simple initialization validation.\n */\ncontract Upgradeable is UpgradeabilityStorage {\n    /**\n     * @dev Validates the caller is the versions registry.\n     * THIS FUNCTION SHOULD BE OVERRIDDEN CALLING SUPER\n     */\n    function initialize() public view {\n        require(\n            msg.sender == address(registry),\n            \"ERR_ONLY_REGISTRERY_CAN_CALL\"\n        );\n    }\n}\n",
  "sourcePath": "/Users/sy/Tokenizer/Projects/stp_mainnet/self-tokenization-platform/contracts/Proxy/Upgradeable.sol",
  "compiler": {
    "name": "solc",
    "version": "0.5.16+commit.9c3226ce.Emscripten.clang"
  },
  "schemaVersion": "3.0.20",
  "updatedAt": "2020-06-24T15:49:54.734Z",
  "devdoc": {
    "details": "This contract holds all the minimum required functionality for a behavior to be upgradeable. This means, required state variables for owned upgradeability purpose and simple initialization validation.",
    "methods": {
      "implementation()": {
        "details": "Tells the address of the current implementation",
        "return": "address of the current implementation"
      },
      "initialize()": {
        "details": "Validates the caller is the versions registry. THIS FUNCTION SHOULD BE OVERRIDDEN CALLING SUPER"
      }
    },
    "title": "Upgradeable"
  },
  "userdoc": {
    "methods": {}
  }
}